S00C00004C6162352E73726563D4
S11300000C943B000C9458000C9458000C94580029
S11300100C9458000C9458000C9458000C945800FC
S11300200C9458000C9458000C9458000C945800EC
S11300300C9458000C9458000C9458000C945800DC
S11300400C9458000C9458000C9458000C945800CC
S11300500C945800F601000200020002F6010002AE
S113006000020002F601000200020002F601F6019D
S113007000023502F60111241FBECFE5D8E0DEBF31
S1130080CDBF10E0A0E6B0E0E8EEFCE002C00590D1
S11300900D92AC3DB107D9F720E0ACEDB0E001C062
S11300A01D92AE3FB207E1F70E94D0020C94720693
S11300B00C9400009C0183E083BF83E808C082BFE6
S11300C098B7916098BFA89508B600FEFDCF21505F
S11300D03109A8F713BE0895CF93DF93EC0189810A
S11300E08F9388818F938B811F928F938A811F9224
S11300F08F9389E690E09F938F938CED90E09F938C
S11301008F930E9488030E94580361E080E00E945C
S11301105D038CED90E00E94710361E081E00E9438
S11301205D038DB79EB70A960FB6F8949EBF0FBEB7
S11301308DBF88858823F9F08F811F928F938E81DC
S11301401F928F938D811F928F938C811F928F9317
S113015082E790E09F938F938CED90E09F938F9331
S11301600E9488038DB79EB70C960FB6F8949EBF75
S11301700FBE8DBF6DC08C818D3020F124E830E03E
S11301803F932F939F811F929F939E811F929F93D2
S11301909D811F929F9390E00C979F938F9387E884
S11301A090E09F938F938CED90E09F938F930E94A8
S11301B088038DB79EB70E960FB6F8949EBF0FBEF8
S11301C08DBF46C0811123C08CE990E09F938F932B
S11301D08F811F928F938E811F928F938D811F9297
S11301E08F931F928CE08F938FE990E09F938F936E
S11301F08CED90E09F938F930E9488038DB79EB7F8
S11302000E960FB6F8949EBF0FBE8DBF21C02CE989
S113021030E03F932F939F811F929F939E811F9263
S11302209F939D811F929F931F928F9387E890E0E5
S11302309F938F938CED90E09F938F930E948803FC
S11302408DB79EB70E960FB6F8949EBF0FBE8DBFA6
S11302508CED90E00E947103DF91CF910895FC0131
S113026023812F5F238382818630F9F028F4823042
S113027041F0843009F519C08930B9F08B30E1F4CC
S113028014C030E0408151814370552781E090E0F3
S1130290452B11F080E090E04C9682179307E4F42C
S11302A083E0828381E0838308952F31A8F08F5FF8
S11302B0828381E083830895203270F091E09383F8
S11302C08F5F8D3010F48283089581E08283808172
S11302D091810196918380830895FC0187818F5FCA
S11302E08A3010F487830895178286818F5F8C3358
S11302F010F486830895168285818F5F8C3310F401
S113030085830895158284818F5F883110F48483F6
S11303100895CF0114820E942F010895CF93C82F0E
S113032014BA15BA44B36C5F7F4F81E090E09C012E
S113033002C0220F331F6A95E2F7242B24BB25B396
S11303400C2E02C0880F991F0A94E2F7822B85BBFA
S113035081E090E00E945A0023B330E002C035955A
S11303602795CA95E2F781E090E020FF02C080E083
S113037090E0CF9108950F931F93CF93DF9300E004
S113038010E018C0BE01C8010E948E01009749F018
S1130390C801880F991F880F991F01968C0F9D1F04
S11303A00CC02196C430D10569F70F5F1F4F04308C
S11303B0110519F0C0E0D0E0E5CFDF91CF911F9196
S11303C00F910895CF92DF92EF92FF920F931F93B4
S11303D0CF93DF93C0E0D0E0C12CD12C0F2EFFE6E9
S11303E0EF2EF0E0FF2EF02D0CED10E00E94BB018B
S11303F08131910528F4FC01E65DFF4F0C948203E2
S1130400AC01415051099A0112F42D5F3F4F3595CB
S1130410279535952795821B930B8B30910511F405
S11304208C2D9D2D9E01220F331FCC0FDD1FCC0F71
S1130430DD1FCC0FDD1FC20FD31FC80FD91F9F9321
S11304408F93FF92EF921F930F930E948803C8012A
S11304500E94710388EC90E00E945A000F900F9064
S11304600F900F900F900F90C1CFCE01DF91CF91DD
S11304701F910F91FF90EF90DF90CF900895CF934D
S1130480DF93EC010E94580361E080E00E945D0369
S113049089E0E6EBF0E0ADEEB0E001900D928A95D4
S11304A0E1F78DEE90E00E9471030E94E2018D83DA
S11304B088EC90E00E945A000E94580361E080E0BA
S11304C00E945D0387E0EFEBF0E0ADEEB0E0019059
S11304D00D928A95E1F78DEE90E00E9471030E94DF
S11304E0E2018C8388EC90E00E945A001E821F82F5
S11304F0DF91CF910895CF93DF93EC010E945803CD
S113050061E080E00E945D0386E0E6ECF0E0ADEEA1
S1130510B0E001900D928A95E1F78DEE90E00E9493
S113052071030E94E2018B8388EC90E00E945A00E0
S11305300E94580361E080E00E945D0388E0ECECD7
S1130540F0E0ADEEB0E001900D928A95E1F78DEE0A
S113055090E00E9471030E94E2018A8388EC90E09B
S11305600E945A000E94580361E080E00E945D03EB
S113057087E0E4EDF0E0ADEEB0E001900D928A95F5
S1130580E1F78DEE90E00E9471030E94E2019983ED
S1130590888388EC90E00E945A00DF91CF910895FF
S11305A0CF93DF93CDB7DEB729970FB6F894DEBFAC
S11305B00FBECDBF8FE081BD0E94300389E0E0E62D
S11305C0F0E0DE01119601900D928A95E1F7CE01DB
S11305D001960E946C0011E085E590E00E945A00AB
S11305E0CE0101960E946D01CE0101960E946C001D
S11305F00E94BB018430910519F0089751F0ECCFAB
S1130600CE0101960E947B02CE0101960E943F0218
S1130610E3CF89858127898786E990E00E945A0083
S1130620DBCF662311F0C09A01C0C098C19882BB89
S11306308FEF81BBC29A000000000000C2980895A9
S1130640C098C19A11BA90B3C29A00000000000089
S113065011BA90B3C29899239CF30E941103089590
S1130660B89AB99ABA9A80E190E00E945A0060E080
S113067080E30E94110385E090E00E945A0060E04C
S113068080E30E94110381E090E00E945A0060E040
S11306908CE30E94200360E08CE00E94200360E071
S11306A086E00E94200360E081E00E942003089518
S11306B060E081E00E9420030895CF93C62F98E262
S11306C0899FC00D112460E082E00E942003CC23A6
S11306D031F060E084E10E942003C150D1F7CF9152
S11306E00895CF93DF93EC012196FC018081882348
S11306F031F061E00E94200389918111FACFDF91EA
S1130700CF910895EE0FFF1F0590F491E02D099409
S1130710AEE0B0E0EEE8F3E00C9449060D891E89E2
S113072086E08C831A8309838FEF9FE79E838D83F2
S1130730AE01475E5F4F6F89788DCE0101960E94AE
S1130740AA03EF81F885E00FF11F10822E96E4E0F2
S11307500C946506ABE0B0E0E0EBF3E00C943B06F0
S11307606C017B018A01FC0117821682838181FF5F
S1130770CCC1CE0101963C01F6019381F70193FDB2
S1130780859193FF81917F01882309F4BAC1853251
S113079039F493FD859193FF81917F01853229F48A
S11307A0B60190E00E94A105E7CF912C212C312CB9
S11307B0FFE1F315D8F08B3279F038F4803279F018
S11307C08332A1F4232D20611DC08D3261F080336A
S11307D069F4232D216016C0832D8260382EE32D09
S11307E0E4603E2E2AC0F32DF8601DC037FC2DC0F6
S11307F020ED280F2A3040F08E32B9F436FC81C146
S1130800232D2064322E19C036FE06C08AE0989E3D
S1130810200D1124922E11C0EAE02E9E200D1124E9
S1130820222EF32DF0623F2E08C08C3621F4832D46
S11308308068382E02C0883641F4F70193FD859113
S113084093FF81917F018111B3CF982F9F7D9554A0
S1130850933028F40C5F1F4F9FE399830DC08336B8
S113086031F0833771F0833509F059C021C0F801A4
S1130870808189830E5F1F4F88248394912C5301B8
S113088013C02801F2E04F0E511CF801A080B18082
S113089036FE03C0692D70E002C06FEF7FEFC50123
S11308A00E9496054C018201F32DFF773F2E16C05E
S11308B0280122E0420E511CF801A080B18036FECE
S11308C003C0692D70E002C06FEF7FEFC5010E9485
S11308D08B054C01F32DF0683F2E820133FC1BC0C5
S11308E0822D90E088169906B0F4B60180E290E07B
S11308F00E94A1052A94F4CFF50137FC859137FEB7
S113090081915F01B60190E00E94A10521102A9413
S113091021E0821A91088114910471F7E8C08436A9
S113092011F0893641F5F80137FE07C06081718105
S1130930828193810C5F1F4F08C060817181072EF3
S1130940000C880B990B0E5F1F4FF32DFF763F2E83
S113095097FF09C090958095709561957F4F8F4F53
S11309609F4FF0683F2E2AE030E0A3010E94DD058E
S1130970882E861845C0853731F4232D2F7EB22E5C
S11309802AE030E025C0932D997FB92E8F36C1F02F
S113099018F4883579F0B5C0803719F0883721F01C
S11309A0B0C0E92FE061BE2EB4FE0DC0FB2DF46093
S11309B0BF2E09C034FE0AC0292F2660B22E06C0FD
S11309C028E030E005C020E130E002C020E132E060
S11309D0F801B7FE07C060817181828193810C5F49
S11309E01F4F06C06081718180E090E00E5F1F4F51
S11309F0A3010E94DD05882E8618FB2DFF773F2E6C
S1130A0036FE0DC0232D2E7FA22E891458F434FEF9
S1130A100BC032FC09C0832D8E7EA82E05C0B82CD5
S1130A20A32C03C0B82C01C0B92CA4FE0FC0FE0136
S1130A30E80DF11D8081803321F49A2D997EA92E31
S1130A4009C0A2FE06C0B394B39404C08A2D86786C
S1130A5009F0B394A3FC11C0A0FE06C0B21488F43C
S1130A60280C922C9B180EC0B21460F4B60180E2DC
S1130A7090E00E94A105B394F7CFB21418F42B1898
S1130A8002C0982C212CA4FE10C0B60180E390E093
S1130A900E94A105A2FE17C0A1FC03C088E790E054
S1130AA002C088E590E0B6010CC08A2D867859F022
S1130AB0A1FE02C08BE201C080E2A7FC8DE2B60178
S1130AC090E00E94A105891438F4B60180E390E017
S1130AD00E94A1059A94F7CF8A94F301E80DF11DC1
S1130AE08081B60190E00E94A1058110F5CF2220FB
S1130AF009F442CEB60180E290E00E94A1052A9456
S1130B00F6CFF6018681978102C08FEF9FEF2B9677
S1130B10E2E10C945706FC0105906150704001100D
S1130B20D8F7809590958E0F9F1F0895FC01615012
S1130B30704001900110D8F7809590958E0F9F1FFB
S1130B4008950F931F93CF93DF93FB01238121FD1E
S1130B5003C08FEF9FEF2CC022FF16C04681578140
S1130B60248135814217530744F4A081B1819D014A
S1130B702F5F3F4F318320838C93268137812F5FF2
S1130B803F4F3783268314C08B01EC01FB010084A3
S1130B90F185E02D0995892BE1F6D80116968D9102
S1130BA09C911797019617969C938E931697CE0156
S1130BB0DF91CF911F910F910895FA01AA27283050
S1130BC051F1203181F1E8946F936E7F6E5F7F4F16
S1130BD08F4F9F4FAF4FB1E03ED0B4E03CD0670F92
S1130BE0781F891F9A1FA11D680F791F8A1F911DE5
S1130BF0A11D6A0F711D811D911DA11D20D009F435
S1130C0068943F912AE0269F11243019305D319376
S1130C10DEF6CF010895462F4770405D4193B3E05F
S1130C200FD0C9F7F6CF462F4F70405D4A3318F006
S1130C30495D31FD4052419302D0A9F7EACFB4E0B7
S1130C40A6959795879577956795BA95C9F700976F
S1130C506105710508959B01AC010A2E0694579510
S1130C60479537952795BA95C9F7620F731F841F67
S1130C70951FA01D08952F923F924F925F926F92FD
S1130C807F928F929F92AF92BF92CF92DF92EF9218
S1130C90FF920F931F93CF93DF93CDB7DEB7CA1B99
S1130CA0DB0B0FB6F894DEBF0FBECDBF09942A88C4
S1130CB0398848885F846E847D848C849B84AA846C
S1130CC0B984C884DF80EE80FD800C811B81AA81F9
S1130CD0B981CE0FD11D0FB6F894DEBF0FBECDBFC4
S10B0CE0ED010895F894FFCF23
S1130CE8E307020B130C05100025642F25642F2538
S1130CF86400253032643A253032643A253032644F
S1130D083A256400504D00253032643A2530326467
S1130D183A253032643A256420257300414D002574
S1130D283032643A253032643A253032643A253018
S1130D383264202573004D696E7574653A20004845
S1130D486F75723A20004461793A20004D6F6E74D1
S10F0D58683A2000596561723A200000DE
S9030000FC
