:100000000C943B000C9458000C9458000C9458002D
:100010000C9458000C9458000C9458000C94580000
:100020000C9458000C9458000C9458000C945800F0
:100030000C9458000C9458000C9458000C945800E0
:100040000C9458000C9458000C9458000C945800D0
:100050000C9458008A029402940294028A02940238
:10006000940294028A029402940294028A028A02FE
:100070009402C9028A0211241FBECFE5D8E0DEBF78
:10008000CDBF10E0A0E6B0E0E2EDF1E102C00590E6
:100090000D92AA3EB107D9F721E0AAEEB0E001C067
:1000A0001D92AC30B207E1F70E9464030C94E7089C
:1000B0000C9400009C0183E083BF83EF08C082BFE3
:1000C00098B7916098BFA89508B600FEFDCF215063
:1000D0003109A8F713BE08958F929F92AF92BF92F5
:1000E000CF92DF92EF92FF92CF93DF93EA019B01D1
:1000F000AC0160E070E080E89FE30E945B0420E0D8
:1001000030E04AE754E40E948A056B017C01BE019D
:1001100080E090E00E94FC04A70196010E945B042D
:100120000E94CD04EB0120E030E040E05FE3C70136
:10013000B6010E948A0520E030E048EC52E40E94BB
:100140008A054B015C01209781F0D99AC501B40161
:100150000E94CD046B017C01CB010E945A00D9980A
:10016000C6010E945A00219781F7DF91CF91FF903D
:10017000EF90DF90CF90BF90AF909F908F900895B9
:100180000F931F93CF93DF93EC011416150674F5AC
:1001900008811981FB01CA01880F991F880F991FD7
:1001A000880F991F480F591F640F751F20813181D7
:1001B00020173107A1F422819A81291310C093815D
:1001C0008B8198130CC094818C81981308C0958101
:1001D0008D81981304C096818E81981751F03996BD
:1001E000E617F70719F780E090E005C080E090E09F
:1001F00002C081E090E0DF91CF911F910F910895AF
:10020000CF93DF93EC0189818F9388818F938B81CA
:100210001F928F938A811F928F9389E690E09F931C
:100220008F938AEE90E09F938F930E94FD050E942A
:10023000310461E080E00E9436048AEE90E00E9482
:100240004A0461E081E00E9436048DB79EB70A96A9
:100250000FB6F8949EBF0FBE8DBF88858823F9F036
:100260008F811F928F938E811F928F938D811F920A
:100270008F938C811F928F9382E790E09F938F934F
:100280008AEE90E09F938F930E94FD058DB79EB7F5
:100290000C960FB6F8949EBF0FBE8DBF6DC08C81BB
:1002A0008D3020F124E830E03F932F939F811F92FF
:1002B0009F939E811F929F939D811F929F9390E099
:1002C0000C979F938F9387E890E09F938F938AEE8C
:1002D00090E09F938F930E94FD058DB79EB70E9679
:1002E0000FB6F8949EBF0FBE8DBF46C0811123C0CC
:1002F0008CE990E09F938F938F811F928F938E81D3
:100300001F928F938D811F928F931F928CE08F93FA
:100310008FE990E09F938F938AEE90E09F938F9365
:100320000E94FD058DB79EB70E960FB6F8949EBF3E
:100330000FBE8DBF21C02CE930E03F932F939F81EA
:100340001F929F939E811F929F939D811F929F93C7
:100350001F928F9387E890E09F938F938AEE90E0AF
:100360009F938F930E94FD058DB79EB70E960FB693
:10037000F8949EBF0FBE8DBF8AEE90E00E944A04A3
:10038000DF91CF910895FC0123812F5F2383828128
:100390008630F9F028F4823041F0843009F519C034
:1003A0008930B9F08B30E1F414C030E040815181E4
:1003B0004370552781E090E0452B11F080E090E0FC
:1003C0004C9682179307E4F483E0828381E0838371
:1003D00008952F31A8F08F5F828381E08383089591
:1003E000203270F091E093838F5F8D3010F4828320
:1003F000089581E082838081918101969183808339
:100400000895FC0187818F5F8A3010F487830895F7
:10041000178286818F5F8C3310F48683089516824D
:1004200085818F5F8C3310F48583089515828481D4
:100430008F5F883110F484830895CF0114820E9465
:10044000C3010895CF93C82F14BA15BA44B36C5F93
:100450007F4F81E090E09C0102C0220F331F6A951C
:10046000E2F7242B24BB25B30C2E02C0880F991F62
:100470000A94E2F7822B85BB81E090E00E945A004B
:1004800023B330E002C035952795CA95E2F781E0A5
:1004900090E020FF02C080E090E0CF9108950F939C
:1004A0001F93CF93DF9300E010E018C0BE01C80196
:1004B0000E942202009749F0C801880F991F880FF7
:1004C000991F01968C0F9D1F0CC02196C430D10539
:1004D00069F70F5F1F4F0430110519F0C0E0D0E03D
:1004E000E5CFDF91CF911F910F910895CF92DF92C9
:1004F000EF92FF920F931F93CF93DF93C0E0D0E072
:10050000C12CD12C0F2EFFE6EF2EF0E0FF2EF02DA8
:100510000AEE10E00E944F028131910528F4FC019F
:10052000E65DFF4F0C94F705AC01415051099A016B
:1005300012F42D5F3F4F3595279535952795821BF2
:10054000930B8B30910511F48C2D9D2D9E01220F64
:10055000331FCC0FDD1FCC0FDD1FCC0FDD1FC20FF3
:10056000D31FC80FD91F9F938F93FF92EF921F93B2
:100570000F930E94FD05C8010E944A0480ED97E098
:100580000E945A000F900F900F900F900F900F90B5
:10059000C1CFCE01DF91CF911F910F91FF90EF90CE
:1005A000DF90CF900895CF93DF93EC010E94310448
:1005B00061E080E00E94360489E0E6EBF0E0ABEF1A
:1005C000B0E001900D928A95E1F78BEF90E00E94E8
:1005D0004A040E9476028D8380ED97E00E945A00C3
:1005E0000E94310461E080E00E94360487E0EFEB76
:1005F000F0E0ABEFB0E001900D928A95E1F78BEF60
:1006000090E00E944A040E9476028C8380ED97E07D
:100610000E945A001E821F82DF91CF910895CF93CE
:10062000DF93EC010E94310461E080E00E94360417
:1006300086E0E6ECF0E0ABEFB0E001900D928A9539
:10064000E1F78BEF90E00E944A040E9476028B83D0
:1006500080ED97E00E945A000E94310461E080E042
:100660000E94360488E0ECECF0E0ABEFB0E00190E3
:100670000D928A95E1F78BEF90E00E944A040E9468
:1006800076028A8380ED97E00E945A000E9431042E
:1006900061E080E00E94360487E0E4EDF0E0ABEF3B
:1006A000B0E001900D928A95E1F78BEF90E00E9407
:1006B0004A040E9476029983888380ED97E00E9425
:1006C0005A00DF91CF910895CF93DF93CDB7DEB776
:1006D000E6970FB6F894DEBF0FBECDBF8FE081BDA9
:1006E0000E940904D19A89E0E0E6F0E0DE0111966B
:1006F00001900D928A95E1F7CE0101960E940001CA
:10070000E12CF12C6E018AE0C80ED11CAC2CBD2C62
:100710009924939482E593E00E945A00CE010196B9
:100720000E940102CE0101960E940001A7016A2DDC
:100730007B2DCE0101960E94C000892B69F003E059
:1007400010E04EE150E060E070E08FED94E40E9434
:100750006C0001501109A9F70E944F0288309105E1
:1007600071F08C30910599F00497A1F6CE010196B5
:100770000E940F03CE0101960E94D302CBCF898540
:10078000892589878CED95E00E945A00C3CF0E948D
:100790003104692D80E00E9436048BED90E00E94C8
:1007A0004A0480E197E20E945A008701000F111F5E
:1007B000000F111F000F111F0E0D1F1D0C0D1D1D11
:1007C000C8010E940F03C8010E94D3028FEFE81AEC
:1007D000F80AA0CF662311F0C09A01C0C098C19852
:1007E00082BB8FEF81BBC29A000000000000C2985C
:1007F0000895C098C19A11BA90B3C29A000000003F
:10080000000011BA90B3C29899239CF30E94EA03A6
:100810000895B89AB99ABA9A80E190E00E945A0075
:1008200060E080E30E94EA0385E090E00E945A00C5
:1008300060E080E30E94EA0381E090E00E945A00B9
:1008400060E08CE30E94F90360E08CE00E94F90311
:1008500060E086E00E94F90360E081E00E94F90315
:10086000089560E081E00E94F9030895CF93C62FB8
:1008700098E2899FC00D112460E082E00E94F90394
:10088000CC2331F060E084E10E94F903C150D1F73C
:10089000CF910895CF93DF93EC012196FC018081E5
:1008A000882331F061E00E94F90389918111FACF28
:1008B000DF91CF9108950E946F040C9450050E941F
:1008C000490558F00E94420540F029F45F3F29F0A5
:1008D0000C94390551110C9484050C943F050E9429
:1008E000610568F39923B1F3552391F3951B550BDB
:1008F000BB27AA2762177307840738F09F5F5F4FF3
:10090000220F331F441FAA1FA9F335D00E2E3AF031
:10091000E0E832D091505040E695001CCAF72BD049
:10092000FE2F29D0660F771F881FBB1F261737079A
:100930004807AB07B0E809F0BB0B802DBF01FF27CC
:1009400093585F4F3AF09E3F510578F00C9439056B
:100950000C9484055F3FE4F3983ED4F38695779535
:100960006795B795F7959F5FC9F7880F911D969585
:10097000879597F90895E1E0660F771F881FBB1FE1
:10098000621773078407BA0720F0621B730B840B8E
:10099000BA0BEE1F88F7E09508950E94690588F06C
:1009A0009F5798F0B92F9927B751B0F0E1F0660F33
:1009B000771F881F991F1AF0BA95C9F714C0B13074
:1009C00091F00E948305B1E008950C948305672F90
:1009D000782F8827B85F39F0B93FCCF386957795A3
:1009E0006795B395D9F73EF490958095709561958C
:1009F0007F4F8F4F9F4F0895E89409C097FB3EF4B7
:100A000090958095709561957F4F8F4F9F4F99235B
:100A1000A9F0F92F96E9BB279395F69587957795D9
:100A20006795B795F111F8CFFAF4BB0F11F460FF99
:100A30001BC06F5F7F4F8F4F9F4F16C0882311F0F1
:100A400096E911C0772321F09EE8872F762F05C005
:100A5000662371F096E8862F70E060E02AF09A95A0
:100A6000660F771F881FDAF7880F9695879597F995
:100A7000089597F99F6780E870E060E008959FEF20
:100A800080EC089500240A94161617061806090625
:100A9000089500240A9412161306140605060895F4
:100AA000092E0394000C11F4882352F0BB0F40F47C
:100AB000BF2B11F460FF04C06F5F7F4F8F4F9F4FBC
:100AC000089557FD9058440F551F59F05F3F71F03E
:100AD0004795880F97FB991F61F09F3F79F08795A5
:100AE0000895121613061406551FF2CF4695F1DF2E
:100AF00008C0161617061806991FF1CF86957105BE
:100B0000610508940895E894BB2766277727CB01F1
:100B100097F908950E949D050C9450050E94420586
:100B200038F00E94490520F0952311F00C94390506
:100B30000C943F0511240C9484050E94610570F308
:100B4000959FC1F3950F50E0551F629FF001729F72
:100B5000BB27F00DB11D639FAA27F00DB11DAA1F81
:100B6000649F6627B00DA11D661F829F2227B00DCE
:100B7000A11D621F739FB00DA11D621F839FA00D59
:100B8000611D221F749F3327A00D611D231F849FA9
:100B9000600D211D822F762F6A2F11249F57504000
:100BA0009AF0F1F088234AF0EE0FFF1FBB1F661F7B
:100BB000771F881F91505040A9F79E3F510580F044
:100BC0000C9439050C9484055F3FE4F3983ED4F30C
:100BD000869577956795B795F795E7959F5FC1F7E8
:100BE000FE2B880F911D9695879597F90895EE0F26
:100BF000FF1F0590F491E02D0994AEE0B0E0E3E032
:100C0000F6E00C94BE080D891E8986E08C831A8359
:100C100009838FEF9FE79E838D83AE01475E5F4F11
:100C20006F89788DCE0101960E941F06EF81F885AD
:100C3000E00FF11F10822E96E4E00C94DA08ABE08E
:100C4000B0E0E5E2F6E00C94B0086C017B018A01AB
:100C5000FC0117821682838181FFCCC1CE010196EF
:100C60003C01F6019381F70193FD859193FF8191FA
:100C70007F01882309F4BAC1853239F493FD859147
:100C800093FF81917F01853229F4B60190E00E94A3
:100C90001608E7CF912C212C312CFFE1F315D8F069
:100CA0008B3279F038F4803279F08332A1F4232D3D
:100CB00020611DC08D3261F0803369F4232D2160E5
:100CC00016C0832D8260382EE32DE4603E2E2AC0AC
:100CD000F32DF8601DC037FC2DC020ED280F2A3001
:100CE00040F08E32B9F436FC81C1232D2064322EBF
:100CF00019C036FE06C08AE0989E200D1124922E5F
:100D000011C0EAE02E9E200D1124222EF32DF06258
:100D10003F2E08C08C3621F4832D8068382E02C007
:100D2000883641F4F70193FD859193FF81917F010E
:100D30008111B3CF982F9F7D9554933028F40C5F89
:100D40001F4F9FE399830DC0833631F0833771F0D5
:100D5000833509F059C021C0F801808189830E5F75
:100D60001F4F88248394912C530113C02801F2E073
:100D70004F0E511CF801A080B18036FE03C0692DD2
:100D800070E002C06FEF7FEFC5010E940B084C01BD
:100D90008201F32DFF773F2E16C0280122E0420E7C
:100DA000511CF801A080B18036FE03C0692D70E0AF
:100DB00002C06FEF7FEFC5010E9400084C01F32DC8
:100DC000F0683F2E820133FC1BC0822D90E0881614
:100DD0009906B0F4B60180E290E00E9416082A94C9
:100DE000F4CFF50137FC859137FE81915F01B601A3
:100DF00090E00E94160821102A9421E0821A91089E
:100E00008114910471F7E8C0843611F0893641F5F8
:100E1000F80137FE07C060817181828193810C5F88
:100E20001F4F08C060817181072E000C880B990B41
:100E30000E5F1F4FF32DFF763F2E97FF09C0909551
:100E40008095709561957F4F8F4F9F4FF0683F2E33
:100E50002AE030E0A3010E945208882E861845C07F
:100E6000853731F4232D2F7EB22E2AE030E025C0C5
:100E7000932D997FB92E8F36C1F018F4883579F00B
:100E8000B5C0803719F0883721F0B0C0E92FE06194
:100E9000BE2EB4FE0DC0FB2DF460BF2E09C034FE83
:100EA0000AC0292F2660B22E06C028E030E005C017
:100EB00020E130E002C020E132E0F801B7FE07C0D7
:100EC00060817181828193810C5F1F4F06C06081B8
:100ED000718180E090E00E5F1F4FA3010E945208D5
:100EE000882E8618FB2DFF773F2E36FE0DC0232D52
:100EF0002E7FA22E891458F434FE0BC032FC09C098
:100F0000832D8E7EA82E05C0B82CA32C03C0B82C30
:100F100001C0B92CA4FE0FC0FE01E80DF11D8081B7
:100F2000803321F49A2D997EA92E09C0A2FE06C015
:100F3000B394B39404C08A2D867809F0B394A3FCCB
:100F400011C0A0FE06C0B21488F4280C922C9B1885
:100F50000EC0B21460F4B60180E290E00E94160860
:100F6000B394F7CFB21418F42B1802C0982C212C8C
:100F7000A4FE10C0B60180E390E00E941608A2FE15
:100F800017C0A1FC03C088E790E002C088E590E0AC
:100F9000B6010CC08A2D867859F0A1FE02C08BE202
:100FA00001C080E2A7FC8DE2B60190E00E94160825
:100FB000891438F4B60180E390E00E9416089A94F0
:100FC000F7CF8A94F301E80DF11D8081B60190E01E
:100FD0000E9416088110F5CF222009F442CEB601F6
:100FE00080E290E00E9416082A94F6CFF6018681EE
:100FF000978102C08FEF9FEF2B96E2E10C94CC0813
:10100000FC010590615070400110D8F780959095D3
:101010008E0F9F1F0895FC016150704001900110D8
:10102000D8F7809590958E0F9F1F08950F931F936B
:10103000CF93DF93FB01238121FD03C08FEF9FEF4F
:101040002CC022FF16C0468157812481358142176A
:10105000530744F4A081B1819D012F5F3F4F31833D
:1010600020838C93268137812F5F3F4F37832683E0
:1010700014C08B01EC01FB010084F185E02D099582
:10108000892BE1F6D80116968D919C9117970196C0
:1010900017969C938E931697CE01DF91CF911F9157
:1010A0000F910895FA01AA27283051F1203181F1DA
:1010B000E8946F936E7F6E5F7F4F8F4F9F4FAF4F60
:1010C000B1E03ED0B4E03CD0670F781F891F9A1F73
:1010D000A11D680F791F8A1F911DA11D6A0F711D27
:1010E000811D911DA11D20D009F468943F912AE033
:1010F000269F11243019305D3193DEF6CF0108951B
:10110000462F4770405D4193B3E00FD0C9F7F6CF4B
:10111000462F4F70405D4A3318F0495D31FD405213
:10112000419302D0A9F7EACFB4E0A69597958795A9
:1011300077956795BA95C9F7009761057105089588
:101140009B01AC010A2E0694579547953795279534
:10115000BA95C9F7620F731F841F951FA01D0895CC
:101160002F923F924F925F926F927F928F929F92B7
:10117000AF92BF92CF92DF92EF92FF920F931F93A5
:10118000CF93DF93CDB7DEB7CA1BDB0B0FB6F89456
:10119000DEBF0FBECDBF09942A88398848885F8496
:1011A0006E847D848C849B84AA84B984C884DF8007
:1011B000EE80FD800C811B81AA81B981CE0FD11DEB
:1011C0000FB6F894DEBF0FBECDBFED010895F894C1
:0211D000FFCF4F
:1011D200E30703150B3700000025642F25642F2534
:1011E2006400253032643A253032643A2530326464
:1011F2003A256400504D00253032643A253032647D
:101202003A253032643A256420257300414D002589
:101212003032643A253032643A253032643A25302D
:101222003264202573004D696E7574653A2000485A
:101232006F75723A20004461793A20004D6F6E74E6
:10124200683A2000596561723A2000536574204E55
:0A125200657720416C61726D0000A9
:00000001FF
